{
  "contractName": "DocumentIdentifier",
  "abi": [
    {
      "constant": true,
      "inputs": [
        {
          "name": "",
          "type": "uint256"
        }
      ],
      "name": "verifiersAddress",
      "outputs": [
        {
          "name": "",
          "type": "address"
        }
      ],
      "payable": false,
      "stateMutability": "view",
      "type": "function"
    },
    {
      "constant": true,
      "inputs": [
        {
          "name": "",
          "type": "address"
        }
      ],
      "name": "issuers",
      "outputs": [
        {
          "name": "id",
          "type": "string"
        },
        {
          "name": "name",
          "type": "string"
        }
      ],
      "payable": false,
      "stateMutability": "view",
      "type": "function"
    },
    {
      "constant": true,
      "inputs": [
        {
          "name": "",
          "type": "address"
        }
      ],
      "name": "verifiers",
      "outputs": [
        {
          "name": "id",
          "type": "string"
        },
        {
          "name": "name",
          "type": "string"
        }
      ],
      "payable": false,
      "stateMutability": "view",
      "type": "function"
    },
    {
      "constant": true,
      "inputs": [],
      "name": "issuersSize",
      "outputs": [
        {
          "name": "",
          "type": "uint256"
        }
      ],
      "payable": false,
      "stateMutability": "view",
      "type": "function"
    },
    {
      "constant": true,
      "inputs": [
        {
          "name": "",
          "type": "address"
        }
      ],
      "name": "documentHolders",
      "outputs": [
        {
          "name": "id",
          "type": "string"
        },
        {
          "name": "name",
          "type": "string"
        },
        {
          "name": "token",
          "type": "uint256"
        },
        {
          "name": "tokenUsed",
          "type": "bool"
        },
        {
          "name": "tokenExpiration",
          "type": "uint256"
        },
        {
          "name": "documentsSize",
          "type": "uint256"
        }
      ],
      "payable": false,
      "stateMutability": "view",
      "type": "function"
    },
    {
      "constant": true,
      "inputs": [],
      "name": "verifiersSize",
      "outputs": [
        {
          "name": "",
          "type": "uint256"
        }
      ],
      "payable": false,
      "stateMutability": "view",
      "type": "function"
    },
    {
      "constant": true,
      "inputs": [
        {
          "name": "",
          "type": "uint256"
        }
      ],
      "name": "issuersAddress",
      "outputs": [
        {
          "name": "",
          "type": "address"
        }
      ],
      "payable": false,
      "stateMutability": "view",
      "type": "function"
    },
    {
      "constant": true,
      "inputs": [],
      "name": "documentHoldersSize",
      "outputs": [
        {
          "name": "",
          "type": "uint256"
        }
      ],
      "payable": false,
      "stateMutability": "view",
      "type": "function"
    },
    {
      "constant": true,
      "inputs": [
        {
          "name": "",
          "type": "uint256"
        }
      ],
      "name": "documentHoldersAddress",
      "outputs": [
        {
          "name": "",
          "type": "address"
        }
      ],
      "payable": false,
      "stateMutability": "view",
      "type": "function"
    },
    {
      "inputs": [],
      "payable": false,
      "stateMutability": "nonpayable",
      "type": "constructor"
    },
    {
      "anonymous": false,
      "inputs": [
        {
          "indexed": true,
          "name": "oldOwner",
          "type": "address"
        },
        {
          "indexed": true,
          "name": "newOwner",
          "type": "address"
        }
      ],
      "name": "OwnerSet",
      "type": "event"
    },
    {
      "anonymous": false,
      "inputs": [
        {
          "indexed": false,
          "name": "issuer",
          "type": "address"
        },
        {
          "indexed": false,
          "name": "id",
          "type": "string"
        },
        {
          "indexed": false,
          "name": "name",
          "type": "string"
        }
      ],
      "name": "IssuerCreated",
      "type": "event"
    },
    {
      "anonymous": false,
      "inputs": [
        {
          "indexed": false,
          "name": "documentHolder",
          "type": "address"
        },
        {
          "indexed": false,
          "name": "id",
          "type": "string"
        },
        {
          "indexed": false,
          "name": "name",
          "type": "string"
        }
      ],
      "name": "DocumentHolderCreated",
      "type": "event"
    },
    {
      "anonymous": false,
      "inputs": [
        {
          "indexed": false,
          "name": "documentHolder",
          "type": "address"
        },
        {
          "indexed": false,
          "name": "token",
          "type": "uint256"
        }
      ],
      "name": "DocumentHolderTokenRefreshed",
      "type": "event"
    },
    {
      "anonymous": false,
      "inputs": [
        {
          "indexed": false,
          "name": "issuerId",
          "type": "string"
        },
        {
          "indexed": false,
          "name": "id",
          "type": "string"
        }
      ],
      "name": "DocumentCreated",
      "type": "event"
    },
    {
      "anonymous": false,
      "inputs": [
        {
          "indexed": false,
          "name": "documentHolder",
          "type": "address"
        },
        {
          "indexed": false,
          "name": "documentId",
          "type": "string"
        },
        {
          "indexed": false,
          "name": "documentAttribute",
          "type": "string"
        },
        {
          "indexed": false,
          "name": "documentValue",
          "type": "string"
        }
      ],
      "name": "DocumentAttributeCreated",
      "type": "event"
    },
    {
      "anonymous": false,
      "inputs": [
        {
          "indexed": false,
          "name": "verifier",
          "type": "address"
        },
        {
          "indexed": false,
          "name": "id",
          "type": "string"
        },
        {
          "indexed": false,
          "name": "name",
          "type": "string"
        }
      ],
      "name": "VerifierCreated",
      "type": "event"
    },
    {
      "constant": false,
      "inputs": [
        {
          "name": "_issuer",
          "type": "address"
        },
        {
          "name": "_id",
          "type": "string"
        },
        {
          "name": "_name",
          "type": "string"
        }
      ],
      "name": "createIssuer",
      "outputs": [],
      "payable": false,
      "stateMutability": "nonpayable",
      "type": "function"
    },
    {
      "constant": false,
      "inputs": [
        {
          "name": "_documentHolder",
          "type": "address"
        },
        {
          "name": "_id",
          "type": "string"
        },
        {
          "name": "_name",
          "type": "string"
        }
      ],
      "name": "createDocumentHolder",
      "outputs": [],
      "payable": false,
      "stateMutability": "nonpayable",
      "type": "function"
    },
    {
      "constant": false,
      "inputs": [
        {
          "name": "_documentHolder",
          "type": "address"
        },
        {
          "name": "_documentId",
          "type": "string"
        }
      ],
      "name": "createDocument",
      "outputs": [],
      "payable": false,
      "stateMutability": "nonpayable",
      "type": "function"
    },
    {
      "constant": false,
      "inputs": [
        {
          "name": "_documentHolder",
          "type": "address"
        },
        {
          "name": "_documentId",
          "type": "string"
        },
        {
          "name": "_attributeIdentifier",
          "type": "string"
        },
        {
          "name": "_attributeValue",
          "type": "string"
        }
      ],
      "name": "createDocumentAttribute",
      "outputs": [],
      "payable": false,
      "stateMutability": "nonpayable",
      "type": "function"
    },
    {
      "constant": false,
      "inputs": [],
      "name": "refreshToken",
      "outputs": [],
      "payable": false,
      "stateMutability": "nonpayable",
      "type": "function"
    },
    {
      "constant": false,
      "inputs": [
        {
          "name": "_verifier",
          "type": "address"
        },
        {
          "name": "_id",
          "type": "string"
        },
        {
          "name": "_name",
          "type": "string"
        }
      ],
      "name": "createVerifier",
      "outputs": [],
      "payable": false,
      "stateMutability": "nonpayable",
      "type": "function"
    },
    {
      "constant": true,
      "inputs": [
        {
          "name": "_documentHolder",
          "type": "address"
        },
        {
          "name": "documentId",
          "type": "string"
        },
        {
          "name": "token",
          "type": "uint256"
        },
        {
          "name": "rules",
          "type": "string[]"
        }
      ],
      "name": "verifyDocument",
      "outputs": [
        {
          "name": "",
          "type": "bool"
        }
      ],
      "payable": false,
      "stateMutability": "view",
      "type": "function"
    }
  ],
  "bytecode": "0x608060405260006002556000600555600060085534801561001f57600080fd5b5033600960006101000a81548173ffffffffffffffffffffffffffffffffffffffff021916908373ffffffffffffffffffffffffffffffffffffffff160217905550600960009054906101000a900473ffffffffffffffffffffffffffffffffffffffff1673ffffffffffffffffffffffffffffffffffffffff16600073ffffffffffffffffffffffffffffffffffffffff167f342827c97908e5e2f71151c08502a66d44b6f758e3ac2f1de95f02eb95f0a73560405160405180910390a361312b806100ed6000396000f3fe6080604052600436106100e6576000357c0100000000000000000000000000000000000000000000000000000000900463ffffffff168063023a0d9b146100eb57806322357f1d1461012857806338a7543e146101655780636c824487146101a35780637a38c29b146101e15780637b76c6f21461020a578063983e976514610233578063a0e6f5911461025e578063ace768d214610287578063cd1e1762146102c9578063cedab869146102f2578063cf6383a21461031b578063d248344714610346578063e93c16f614610383578063f1f95b0c146103ae578063fa6a04e4146103eb575b600080fd5b3480156100f757600080fd5b50610112600480360361010d9190810190612be2565b610402565b60405161011f9190612d39565b60405180910390f35b34801561013457600080fd5b5061014f600480360361014a9190810190612b4f565b610435565b60405161015c9190612e1c565b60405180910390f35b34801561017157600080fd5b5061018c600480360361018791908101906129a8565b6111f2565b60405161019a929190612e37565b60405180910390f35b3480156101af57600080fd5b506101ca60048036036101c591908101906129a8565b611346565b6040516101d8929190612e37565b60405180910390f35b3480156101ed57600080fd5b5061020860048036036102039190810190612a25565b61149a565b005b34801561021657600080fd5b50610231600480360361022c9190810190612aa4565b6116f9565b005b34801561023f57600080fd5b50610248611bd2565b6040516102559190612f14565b60405180910390f35b34801561026a57600080fd5b5061028560048036036102809190810190612a25565b611bd8565b005b34801561029357600080fd5b506102ae60048036036102a991908101906129a8565b611e06565b6040516102c096959493929190612e6e565b60405180910390f35b3480156102d557600080fd5b506102f060048036036102eb91908101906129d1565b611f7f565b005b3480156102fe57600080fd5b5061031960048036036103149190810190612a25565b612322565b005b34801561032757600080fd5b50610330612551565b60405161033d9190612f14565b60405180910390f35b34801561035257600080fd5b5061036d60048036036103689190810190612be2565b612557565b60405161037a9190612d39565b60405180910390f35b34801561038f57600080fd5b5061039861258a565b6040516103a59190612f14565b60405180910390f35b3480156103ba57600080fd5b506103d560048036036103d09190810190612be2565b612590565b6040516103e29190612d39565b60405180910390f35b3480156103f757600080fd5b506104006125c3565b005b60076020528060005260406000206000915054906101000a900473ffffffffffffffffffffffffffffffffffffffff1681565b600080600660003373ffffffffffffffffffffffffffffffffffffffff1673ffffffffffffffffffffffffffffffffffffffff168152602001908152602001600020905060006060602060405190810160405280600081525090506000600360008a73ffffffffffffffffffffffffffffffffffffffff1673ffffffffffffffffffffffffffffffffffffffff16815260200190815260200160002090506000600387518115156104e257fe5b061415806105de5750816040516020018082805190602001908083835b60208310151561052457805182526020820191506020810190506020830392506104ff565b6001836020036101000a038019825116818451168082178552505050505050905001915050604051602081830303815290604052805190602001208160000160405160200180828054600181600116156101000203166002900480156105c15780601f1061059f5761010080835404028352918201916105c1565b820191906000526020600020905b8154815290600101906020018083116105ad575b505091505060405160208183030381529060405280519060200120145b806106d75750816040516020018082805190602001908083835b60208310151561061d57805182526020820191506020810190506020830392506105f8565b6001836020036101000a038019825116818451168082178552505050505050905001915050604051602081830303815290604052805190602001208460000160405160200180828054600181600116156101000203166002900480156106ba5780601f106106985761010080835404028352918201916106ba565b820191906000526020600020905b8154815290600101906020018083116106a6575b505091505060405160208183030381529060405280519060200120145b806106e6575086816002015414155b806107065750600115158160030160009054906101000a900460ff161515145b80610715575042816004015410155b156107235760009250610728565b600192505b600081600501896040518082805190602001908083835b602083101515610764578051825260208201915060208101905060208303925061073f565b6001836020036101000a0380198251168184511680821785525050505050509050019150509081526020016040518091039020905060008090505b6001151585151514806107be5750600388518115156107ba57fe5b0481105b156111e157606088828151811015156107d357fe5b906020019060200201519050606089600184018151811015156107f257fe5b90602001906020020151905060608a6002850181518110151561081157fe5b906020019060200201519050606085600201846040518082805190602001908083835b6020831015156108595780518252602082019150602081019050602083039250610834565b6001836020036101000a03801982511681845116808217855250505050505090500191505090815260200160405180910390208054600181600116156101000203166002900480601f0160208091040260200160405190810160405280929190818152602001828054600181600116156101000203166002900480156109205780601f106108f557610100808354040283529160200191610920565b820191906000526020600020905b81548152906001019060200180831161090357829003601f168201915b5050505050905060405160200180807f3c00000000000000000000000000000000000000000000000000000000000000815250600101905060405160208183030381529060405280519060200120836040516020018082805190602001908083835b6020831015156109a75780518252602082019150602081019050602083039250610982565b6001836020036101000a038019825116818451168082178552505050505050905001915050604051602081830303815290604052805190602001201415610ae057816040516020018082805190602001908083835b602083101515610a2157805182526020820191506020810190506020830392506109fc565b6001836020036101000a03801982511681845116808217855250505050505090500191505060405160208183030381529060405280519060200120816040516020018082805190602001908083835b602083101515610a955780518252602082019150602081019050602083039250610a70565b6001836020036101000a038019825116818451168082178552505050505050905001915050604051602081830303815290604052805190602001201015610adb57600098505b6111d0565b60405160200180807f3e00000000000000000000000000000000000000000000000000000000000000815250600101905060405160208183030381529060405280519060200120836040516020018082805190602001908083835b602083101515610b605780518252602082019150602081019050602083039250610b3b565b6001836020036101000a038019825116818451168082178552505050505050905001915050604051602081830303815290604052805190602001201415610c9957816040516020018082805190602001908083835b602083101515610bda5780518252602082019150602081019050602083039250610bb5565b6001836020036101000a03801982511681845116808217855250505050505090500191505060405160208183030381529060405280519060200120816040516020018082805190602001908083835b602083101515610c4e5780518252602082019150602081019050602083039250610c29565b6001836020036101000a038019825116818451168082178552505050505050905001915050604051602081830303815290604052805190602001201115610c9457600098505b6111cf565b60405160200180807f3c3d000000000000000000000000000000000000000000000000000000000000815250600201905060405160208183030381529060405280519060200120836040516020018082805190602001908083835b602083101515610d195780518252602082019150602081019050602083039250610cf4565b6001836020036101000a038019825116818451168082178552505050505050905001915050604051602081830303815290604052805190602001201415610e5357816040516020018082805190602001908083835b602083101515610d935780518252602082019150602081019050602083039250610d6e565b6001836020036101000a03801982511681845116808217855250505050505090500191505060405160208183030381529060405280519060200120816040516020018082805190602001908083835b602083101515610e075780518252602082019150602081019050602083039250610de2565b6001836020036101000a03801982511681845116808217855250505050505090500191505060405160208183030381529060405280519060200120111515610e4e57600098505b6111ce565b60405160200180807f3e3d000000000000000000000000000000000000000000000000000000000000815250600201905060405160208183030381529060405280519060200120836040516020018082805190602001908083835b602083101515610ed35780518252602082019150602081019050602083039250610eae565b6001836020036101000a03801982511681845116808217855250505050505090500191505060405160208183030381529060405280519060200120141561100d57816040516020018082805190602001908083835b602083101515610f4d5780518252602082019150602081019050602083039250610f28565b6001836020036101000a03801982511681845116808217855250505050505090500191505060405160208183030381529060405280519060200120816040516020018082805190602001908083835b602083101515610fc15780518252602082019150602081019050602083039250610f9c565b6001836020036101000a0380198251168184511680821785525050505050509050019150506040516020818303038152906040528051906020012010151561100857600098505b6111cd565b60405160200180807f3d00000000000000000000000000000000000000000000000000000000000000815250600101905060405160208183030381529060405280519060200120836040516020018082805190602001908083835b60208310151561108d5780518252602082019150602081019050602083039250611068565b6001836020036101000a0380198251168184511680821785525050505050509050019150506040516020818303038152906040528051906020012014156111c757816040516020018082805190602001908083835b60208310151561110757805182526020820191506020810190506020830392506110e2565b6001836020036101000a03801982511681845116808217855250505050505090500191505060405160208183030381529060405280519060200120816040516020018082805190602001908083835b60208310151561117b5780518252602082019150602081019050602083039250611156565b6001836020036101000a038019825116818451168082178552505050505050905001915050604051602081830303815290604052805190602001201415156111c257600098505b6111cc565b600098505b5b5b5b5b84806001019550505050505061079f565b849650505050505050949350505050565b6000602052806000526040600020600091509050806000018054600181600116156101000203166002900480601f01602080910402602001604051908101604052809291908181526020018280546001816001161561010002031660029004801561129e5780601f106112735761010080835404028352916020019161129e565b820191906000526020600020905b81548152906001019060200180831161128157829003601f168201915b505050505090806001018054600181600116156101000203166002900480601f01602080910402602001604051908101604052809291908181526020018280546001816001161561010002031660029004801561133c5780601f106113115761010080835404028352916020019161133c565b820191906000526020600020905b81548152906001019060200180831161131f57829003601f168201915b5050505050905082565b6006602052806000526040600020600091509050806000018054600181600116156101000203166002900480601f0160208091040260200160405190810160405280929190818152602001828054600181600116156101000203166002900480156113f25780601f106113c7576101008083540402835291602001916113f2565b820191906000526020600020905b8154815290600101906020018083116113d557829003601f168201915b505050505090806001018054600181600116156101000203166002900480601f0160208091040260200160405190810160405280929190818152602001828054600181600116156101000203166002900480156114905780601f1061146557610100808354040283529160200191611490565b820191906000526020600020905b81548152906001019060200180831161147357829003601f168201915b5050505050905082565b6000600360008573ffffffffffffffffffffffffffffffffffffffff1673ffffffffffffffffffffffffffffffffffffffff1681526020019081526020016000209050606060206040519081016040528060008152509050806040516020018082805190602001908083835b60208310151561152b5780518252602082019150602081019050602083039250611506565b6001836020036101000a038019825116818451168082178552505050505050905001915050604051602081830303815290604052805190602001208260000160405160200180828054600181600116156101000203166002900480156115c85780601f106115a65761010080835404028352918201916115c8565b820191906000526020600020905b8154815290600101906020018083116115b4575b5050915050604051602081830303815290604052805190602001201415156115ef57600080fd5b83826000019080519060200190611607929190612732565b5082826001019080519060200190611620929190612732565b506000826002018190555060018260030160006101000a81548160ff0219169083151502179055504282600401819055508460046000600554815260200190815260200160002060006101000a81548173ffffffffffffffffffffffffffffffffffffffff021916908373ffffffffffffffffffffffffffffffffffffffff1602179055506005600081548092919060010191905055507f754426c9d6af4bde3d7f45873148f1675e3964b7bea535cabd63f26b620b9e848585856040516116ea93929190612d7d565b60405180910390a15050505050565b60008060003373ffffffffffffffffffffffffffffffffffffffff1673ffffffffffffffffffffffffffffffffffffffff1681526020019081526020016000209050606060206040519081016040528060008152509050806040516020018082805190602001908083835b6020831015156117895780518252602082019150602081019050602083039250611764565b6001836020036101000a038019825116818451168082178552505050505050905001915050604051602081830303815290604052805190602001208260000160405160200180828054600181600116156101000203166002900480156118265780601f10611804576101008083540402835291820191611826565b820191906000526020600020905b815481529060010190602001808311611812575b5050915050604051602081830303815290604052805190602001201415151561184e57600080fd5b6000600360008873ffffffffffffffffffffffffffffffffffffffff1673ffffffffffffffffffffffffffffffffffffffff1681526020019081526020016000209050816040516020018082805190602001908083835b6020831015156118ca57805182526020820191506020810190506020830392506118a5565b6001836020036101000a038019825116818451168082178552505050505050905001915050604051602081830303815290604052805190602001208160000160405160200180828054600181600116156101000203166002900480156119675780601f10611945576101008083540402835291820191611967565b820191906000526020600020905b815481529060010190602001808311611953575b5050915050604051602081830303815290604052805190602001201415151561198f57600080fd5b600081600501876040518082805190602001908083835b6020831015156119cb57805182526020820191506020810190506020830392506119a6565b6001836020036101000a03801982511681845116808217855250505050505090500191505090815260200160405180910390209050836000016040516020018082805460018160011615610100020316600290048015611a625780601f10611a40576101008083540402835291820191611a62565b820191906000526020600020905b815481529060010190602001808311611a4e575b505091505060405160208183030381529060405280519060200120816000016000016040516020018082805460018160011615610100020316600290048015611ae25780601f10611ac0576101008083540402835291820191611ae2565b820191906000526020600020905b815481529060010190602001808311611ace575b505091505060405160208183030381529060405280519060200120141515611b0957600080fd5b8481600201876040518082805190602001908083835b602083101515611b445780518252602082019150602081019050602083039250611b1f565b6001836020036101000a03801982511681845116808217855250505050505090500191505090815260200160405180910390209080519060200190611b8a929190612732565b507f578d5a8248ebdf00c64a8b18dfe873558f44c6d69fed5db89dc1276eab01c30588888888604051611bc09493929190612dc2565b60405180910390a15050505050505050565b60025481565b60008060008573ffffffffffffffffffffffffffffffffffffffff1673ffffffffffffffffffffffffffffffffffffffff1681526020019081526020016000209050606060206040519081016040528060008152509050806040516020018082805190602001908083835b602083101515611c685780518252602082019150602081019050602083039250611c43565b6001836020036101000a03801982511681845116808217855250505050505090500191505060405160208183030381529060405280519060200120826000016040516020018082805460018160011615610100020316600290048015611d055780601f10611ce3576101008083540402835291820191611d05565b820191906000526020600020905b815481529060010190602001808311611cf1575b505091505060405160208183030381529060405280519060200120141515611d2c57600080fd5b83826000019080519060200190611d44929190612732565b5082826001019080519060200190611d5d929190612732565b508460016000600254815260200190815260200160002060006101000a81548173ffffffffffffffffffffffffffffffffffffffff021916908373ffffffffffffffffffffffffffffffffffffffff1602179055506002600081548092919060010191905055507f754426c9d6af4bde3d7f45873148f1675e3964b7bea535cabd63f26b620b9e84858585604051611df793929190612d7d565b60405180910390a15050505050565b6003602052806000526040600020600091509050806000018054600181600116156101000203166002900480601f016020809104026020016040519081016040528092919081815260200182805460018160011615610100020316600290048015611eb25780601f10611e8757610100808354040283529160200191611eb2565b820191906000526020600020905b815481529060010190602001808311611e9557829003601f168201915b505050505090806001018054600181600116156101000203166002900480601f016020809104026020016040519081016040528092919081815260200182805460018160011615610100020316600290048015611f505780601f10611f2557610100808354040283529160200191611f50565b820191906000526020600020905b815481529060010190602001808311611f3357829003601f168201915b5050505050908060020154908060030160009054906101000a900460ff16908060040154908060070154905086565b60008060003373ffffffffffffffffffffffffffffffffffffffff1673ffffffffffffffffffffffffffffffffffffffff1681526020019081526020016000209050606060206040519081016040528060008152509050806040516020018082805190602001908083835b60208310151561200f5780518252602082019150602081019050602083039250611fea565b6001836020036101000a038019825116818451168082178552505050505050905001915050604051602081830303815290604052805190602001208260000160405160200180828054600181600116156101000203166002900480156120ac5780601f1061208a5761010080835404028352918201916120ac565b820191906000526020600020905b815481529060010190602001808311612098575b505091505060405160208183030381529060405280519060200120141515156120d457600080fd5b6000600360008673ffffffffffffffffffffffffffffffffffffffff1673ffffffffffffffffffffffffffffffffffffffff1681526020019081526020016000209050816040516020018082805190602001908083835b602083101515612150578051825260208201915060208101905060208303925061212b565b6001836020036101000a038019825116818451168082178552505050505050905001915050604051602081830303815290604052805190602001208160000160405160200180828054600181600116156101000203166002900480156121ed5780601f106121cb5761010080835404028352918201916121ed565b820191906000526020600020905b8154815290600101906020018083116121d9575b5050915050604051602081830303815290604052805190602001201415151561221557600080fd5b600081600501856040518082805190602001908083835b602083101515612251578051825260208201915060208101905060208303925061222c565b6001836020036101000a038019825116818451168082178552505050505050905001915050908152602001604051809103902090508381600001600082018160000190805460018160011615610100020316600290046122b29291906127b2565b50600182018160010190805460018160011615610100020316600290046122da9291906127b2565b509050507f1d7d2288d6cde2825199b906ff27d84d53bbde00b1e86789fc7af224dd8648e98460000186604051612312929190612edd565b60405180910390a1505050505050565b6000600660008573ffffffffffffffffffffffffffffffffffffffff1673ffffffffffffffffffffffffffffffffffffffff1681526020019081526020016000209050606060206040519081016040528060008152509050806040516020018082805190602001908083835b6020831015156123b3578051825260208201915060208101905060208303925061238e565b6001836020036101000a038019825116818451168082178552505050505050905001915050604051602081830303815290604052805190602001208260000160405160200180828054600181600116156101000203166002900480156124505780601f1061242e576101008083540402835291820191612450565b820191906000526020600020905b81548152906001019060200180831161243c575b50509150506040516020818303038152906040528051906020012014151561247757600080fd5b8382600001908051906020019061248f929190612732565b50828260010190805190602001906124a8929190612732565b508460076000600854815260200190815260200160002060006101000a81548173ffffffffffffffffffffffffffffffffffffffff021916908373ffffffffffffffffffffffffffffffffffffffff1602179055506008600081548092919060010191905055507f754426c9d6af4bde3d7f45873148f1675e3964b7bea535cabd63f26b620b9e8485858560405161254293929190612d7d565b60405180910390a15050505050565b60085481565b60016020528060005260406000206000915054906101000a900473ffffffffffffffffffffffffffffffffffffffff1681565b60055481565b60046020528060005260406000206000915054906101000a900473ffffffffffffffffffffffffffffffffffffffff1681565b6000600360003373ffffffffffffffffffffffffffffffffffffffff1673ffffffffffffffffffffffffffffffffffffffff168152602001908152602001600020905061260e612680565b816002018190555060008160030160006101000a81548160ff021916908315150217905550610258420181600401819055507f6341f19576911d8f00b1dc3ab15f97c117abf6c8df0ec3b7ac6910c7ad985092338260020154604051612675929190612d54565b60405180910390a150565b6000620dbb9f423343600a54604051602001808581526020018473ffffffffffffffffffffffffffffffffffffffff1673ffffffffffffffffffffffffffffffffffffffff166c01000000000000000000000000028152601401838152602001828152602001945050505050604051602081830303815290604052805190602001206001900481151561270f57fe5b069050620186a081019050600a6000815480929190600101919050555080905090565b828054600181600116156101000203166002900490600052602060002090601f016020900481019282601f1061277357805160ff19168380011785556127a1565b828001600101855582156127a1579182015b828111156127a0578251825591602001919060010190612785565b5b5090506127ae9190612839565b5090565b828054600181600116156101000203166002900490600052602060002090601f016020900481019282601f106127eb5780548555612828565b8280016001018555821561282857600052602060002091601f016020900482015b8281111561282757825482559160010191906001019061280c565b5b5090506128359190612839565b5090565b61285b91905b8082111561285757600081600090555060010161283f565b5090565b90565b600061286a823561304c565b905092915050565b600082601f830112151561288557600080fd5b813561289861289382612f5c565b612f2f565b9150818183526020840193506020810190508360005b838110156128de57813586016128c488826128e8565b8452602084019350602083019250506001810190506128ae565b5050505092915050565b600082601f83011215156128fb57600080fd5b813561290e61290982612f84565b612f2f565b9150808252602083016020830185838301111561292a57600080fd5b61293583828461309e565b50505092915050565b600082601f830112151561295157600080fd5b813561296461295f82612fb0565b612f2f565b9150808252602083016020830185838301111561298057600080fd5b61298b83828461309e565b50505092915050565b60006129a0823561305e565b905092915050565b6000602082840312156129ba57600080fd5b60006129c88482850161285e565b91505092915050565b600080604083850312156129e457600080fd5b60006129f28582860161285e565b925050602083013567ffffffffffffffff811115612a0f57600080fd5b612a1b8582860161293e565b9150509250929050565b600080600060608486031215612a3a57600080fd5b6000612a488682870161285e565b935050602084013567ffffffffffffffff811115612a6557600080fd5b612a718682870161293e565b925050604084013567ffffffffffffffff811115612a8e57600080fd5b612a9a8682870161293e565b9150509250925092565b60008060008060808587031215612aba57600080fd5b6000612ac88782880161285e565b945050602085013567ffffffffffffffff811115612ae557600080fd5b612af18782880161293e565b935050604085013567ffffffffffffffff811115612b0e57600080fd5b612b1a8782880161293e565b925050606085013567ffffffffffffffff811115612b3757600080fd5b612b438782880161293e565b91505092959194509250565b60008060008060808587031215612b6557600080fd5b6000612b738782880161285e565b945050602085013567ffffffffffffffff811115612b9057600080fd5b612b9c8782880161293e565b9350506040612bad87828801612994565b925050606085013567ffffffffffffffff811115612bca57600080fd5b612bd687828801612872565b91505092959194509250565b600060208284031215612bf457600080fd5b6000612c0284828501612994565b91505092915050565b612c1481613068565b82525050565b612c2381613004565b82525050565b612c3281613016565b82525050565b6000612c4382612ff9565b808452612c578160208601602086016130ad565b612c60816130e0565b602085010191505092915050565b6000612c7982612fee565b808452612c8d8160208601602086016130ad565b612c96816130e0565b602085010191505092915050565b600081546001811660008114612cc15760018114612ce157612d22565b607f600283041680865260ff198316602087015260408601935050612d22565b60028204808652602086019550612cf785612fdc565b60005b82811015612d1957815481890152600182019150602081019050612cfa565b80880195505050505b505092915050565b612d3381613042565b82525050565b6000602082019050612d4e6000830184612c1a565b92915050565b6000604082019050612d696000830185612c0b565b612d766020830184612d2a565b9392505050565b6000606082019050612d926000830186612c1a565b8181036020830152612da48185612c38565b90508181036040830152612db88184612c38565b9050949350505050565b6000608082019050612dd76000830187612c1a565b8181036020830152612de98186612c38565b90508181036040830152612dfd8185612c38565b90508181036060830152612e118184612c38565b905095945050505050565b6000602082019050612e316000830184612c29565b92915050565b60006040820190508181036000830152612e518185612c6e565b90508181036020830152612e658184612c6e565b90509392505050565b600060c0820190508181036000830152612e888189612c6e565b90508181036020830152612e9c8188612c6e565b9050612eab6040830187612d2a565b612eb86060830186612c29565b612ec56080830185612d2a565b612ed260a0830184612d2a565b979650505050505050565b60006040820190508181036000830152612ef78185612ca4565b90508181036020830152612f0b8184612c38565b90509392505050565b6000602082019050612f296000830184612d2a565b92915050565b6000604051905081810181811067ffffffffffffffff82111715612f5257600080fd5b8060405250919050565b600067ffffffffffffffff821115612f7357600080fd5b602082029050602081019050919050565b600067ffffffffffffffff821115612f9b57600080fd5b601f19601f8301169050602081019050919050565b600067ffffffffffffffff821115612fc757600080fd5b601f19601f8301169050602081019050919050565b60008160005260206000209050919050565b600081519050919050565b600081519050919050565b600061300f82613022565b9050919050565b60008115159050919050565b600073ffffffffffffffffffffffffffffffffffffffff82169050919050565b6000819050919050565b600061305782613022565b9050919050565b6000819050919050565b60006130738261307a565b9050919050565b60006130858261308c565b9050919050565b600061309782613022565b9050919050565b82818337600083830152505050565b60005b838110156130cb5780820151818401526020810190506130b0565b838111156130da576000848401525b50505050565b6000601f19601f830116905091905056fea265627a7a723058209caf88d227134a9d40874d0ec2e3da317489f73572afcfc652ec76650c2019ec6c6578706572696d656e74616cf50037",
  "source": "// SPDX-License-Identifier: GPL-3.0\r\n\r\npragma solidity ^0.5.0;\r\npragma experimental ABIEncoderV2;\r\n\r\ncontract DocumentIdentifier {\r\n\r\n    event OwnerSet(\r\n        address indexed oldOwner, \r\n        address indexed newOwner\r\n    );\r\n\r\n    struct Issuer {\r\n        string id;\r\n        string name;\r\n    }\r\n\t\r\n\tevent IssuerCreated(\r\n\t\taddress issuer,\r\n        string id,\r\n        string name\r\n    );\r\n\r\n    struct DocumentHolder {\r\n        string id;\r\n        string name;\r\n\t\tuint token;\r\n\t\tbool tokenUsed;\r\n        uint tokenExpiration;\r\n        mapping(string => Document) documents;\r\n\t\tmapping(uint => string) documentIds;\r\n\t\tuint documentsSize;\r\n    }\r\n\t\r\n\tevent DocumentHolderCreated(\r\n\t\taddress documentHolder,\r\n        string id,\r\n        string name\r\n    );\r\n\r\n    event DocumentHolderTokenRefreshed(\r\n\t\taddress documentHolder,\r\n        uint token\r\n    );\r\n\r\n    struct Document {\r\n        Issuer issuer;\r\n        mapping(string=>string) attributes;\r\n    }\r\n\r\n    event DocumentCreated(\r\n        string issuerId,\r\n        string id\r\n    );\r\n\r\n    event DocumentAttributeCreated(\r\n        address documentHolder,\r\n        string documentId,\r\n        string documentAttribute,\r\n        string documentValue\r\n    );\r\n\r\n    struct Verifier {\r\n        string id;\r\n        string name;\r\n    }\r\n\t\r\n\tevent VerifierCreated(\r\n\t\taddress verifier,\r\n        string id,\r\n        string name\r\n    );\r\n\r\n    mapping(address => Issuer) public issuers;\r\n\tmapping(uint => address) public issuersAddress;\r\n    uint public issuersSize = 0;\r\n\r\n    mapping(address => DocumentHolder) public documentHolders;\r\n\tmapping(uint => address) public documentHoldersAddress;\r\n    uint public documentHoldersSize = 0;\r\n\r\n    mapping(address => Verifier) public verifiers;\r\n\tmapping(uint => address) public verifiersAddress;\r\n    uint public verifiersSize = 0;\r\n\r\n    address private owner;\r\n    uint private nonce;\r\n\r\n    constructor() public {\r\n        owner = msg.sender;\r\n        emit OwnerSet(address(0), owner);\r\n    }\r\n\r\n    function createIssuer(address _issuer, string memory _id, string memory _name) public {\r\n        Issuer storage issuer = issuers[_issuer];\r\n        string memory empty = \"\";\r\n        require(keccak256(abi.encodePacked(issuer.id)) == keccak256(abi.encodePacked(empty)));\r\n\t\tissuer.id = _id;\r\n        issuer.name = _name;\r\n\t\tissuersAddress[issuersSize] = _issuer;\r\n\t\tissuersSize++;\r\n\t\temit IssuerCreated(_issuer, _id, _name);\r\n    }\r\n\r\n    function createDocumentHolder(address _documentHolder, string memory _id, string memory _name) public {\r\n        DocumentHolder storage documentHolder = documentHolders[_documentHolder];\r\n        string memory empty = \"\";\r\n        require(keccak256(abi.encodePacked(documentHolder.id)) == keccak256(abi.encodePacked(empty)));\r\n        documentHolder.id = _id;\r\n        documentHolder.name = _name;\r\n\t\tdocumentHolder.token = 0;\r\n\t\tdocumentHolder.tokenUsed = true;\r\n        documentHolder.tokenExpiration = now;\r\n\t\tdocumentHoldersAddress[documentHoldersSize] = _documentHolder;\r\n        documentHoldersSize++;\r\n\t\temit IssuerCreated(_documentHolder, _id, _name);\r\n    }\r\n\r\n    function createDocument(address _documentHolder, string memory _documentId) public {\r\n        Issuer storage issuer = issuers[msg.sender];\r\n        string memory empty = \"\";\r\n        require(keccak256(abi.encodePacked(issuer.id)) != keccak256(abi.encodePacked(empty)));\r\n        DocumentHolder storage documentHolder = documentHolders[_documentHolder];\r\n        require(keccak256(abi.encodePacked(documentHolder.id)) != keccak256(abi.encodePacked(empty)));\r\n        Document storage document = documentHolder.documents[_documentId];\r\n        document.issuer = issuer;\r\n        emit DocumentCreated(issuer.id, _documentId);\r\n    }\r\n\r\n    function createDocumentAttribute(address _documentHolder, string memory _documentId, \r\n        string memory _attributeIdentifier, string memory _attributeValue) public {\r\n        Issuer storage issuer = issuers[msg.sender];\r\n        string memory empty = \"\";\r\n        require(keccak256(abi.encodePacked(issuer.id)) != keccak256(abi.encodePacked(empty)));\r\n        DocumentHolder storage documentHolder = documentHolders[_documentHolder];\r\n        require(keccak256(abi.encodePacked(documentHolder.id)) != keccak256(abi.encodePacked(empty)));\r\n        Document storage document = documentHolder.documents[_documentId];\r\n        require(keccak256(abi.encodePacked(document.issuer.id)) == keccak256(abi.encodePacked(issuer.id)));\r\n        document.attributes[_attributeIdentifier] = _attributeValue;\r\n        emit DocumentAttributeCreated(_documentHolder, _documentId, _attributeIdentifier, _attributeValue);\r\n    }\r\n\t\r\n\tfunction refreshToken() public {\r\n\t\tDocumentHolder storage documentHolder = documentHolders[msg.sender];\r\n\t\tdocumentHolder.token = random();\r\n\t\tdocumentHolder.tokenUsed = false;\r\n        documentHolder.tokenExpiration = now + 10 minutes;\r\n        emit DocumentHolderTokenRefreshed(msg.sender, documentHolder.token);\r\n\t}\r\n\r\n    function createVerifier(address _verifier, string memory _id, string memory _name) public {\r\n        Verifier storage verifier = verifiers[_verifier];\r\n        string memory empty = \"\";\r\n        require(keccak256(abi.encodePacked(verifier.id)) == keccak256(abi.encodePacked(empty)));\r\n        verifier.id = _id;\r\n        verifier.name = _name;\r\n\t\tverifiersAddress[verifiersSize] = _verifier;\r\n        verifiersSize++;\r\n\t\temit IssuerCreated(_verifier, _id, _name);\r\n    }\r\n\t\r\n\tfunction random() internal returns (uint amount) {\r\n        amount = uint(keccak256(abi.encodePacked(block.timestamp, msg.sender, block.number, nonce))) % (999999-100000);\r\n        amount = amount + 100000;\r\n        nonce++;\r\n        return amount;\r\n    }\r\n\t\r\n\tfunction verifyDocument(address _documentHolder, string memory documentId, uint token, string[] memory rules) public view returns (bool) {\r\n        Verifier storage verifier = verifiers[msg.sender];        \r\n        bool isValid;\r\n        string memory empty = \"\";\r\n        DocumentHolder storage documentHolder = documentHolders[_documentHolder];\r\n\t\tif (rules.length % 3 != 0 || keccak256(abi.encodePacked(documentHolder.id)) == keccak256(abi.encodePacked(empty)) || keccak256(abi.encodePacked(verifier.id)) == keccak256(abi.encodePacked(empty))\r\n            || documentHolder.token != token || documentHolder.tokenUsed == true || documentHolder.tokenExpiration >= now) {\r\n            isValid = false;\r\n        } else {\r\n            isValid = true;\r\n        }\r\n        Document storage document = documentHolder.documents[documentId];        \r\n        uint i = 0;\r\n        while (isValid ==  true || i < rules.length / 3)\r\n        {\r\n            string memory identifier = rules[i];\r\n            string memory rule = rules[i+1];\r\n            string memory value = rules[i+2];\r\n            string memory documentAttribute = document.attributes[identifier];\r\n            if (keccak256(abi.encodePacked(rule)) == keccak256(abi.encodePacked(\"<\"))) {\r\n\t\t\t\tif ((keccak256(abi.encodePacked(documentAttribute)) < keccak256(abi.encodePacked(value)))) \r\n                {\r\n                    isValid = false;\r\n                }\r\n            } else if (keccak256(abi.encodePacked(rule)) == keccak256(abi.encodePacked(\">\"))) {\r\n\t\t\t\tif ((keccak256(abi.encodePacked(documentAttribute)) > keccak256(abi.encodePacked(value)))) \r\n                {\r\n                    isValid = false;\r\n                }\r\n            } else if (keccak256(abi.encodePacked(rule)) == keccak256(abi.encodePacked(\"<=\"))) {\r\n\t\t\t\tif ((keccak256(abi.encodePacked(documentAttribute)) <= keccak256(abi.encodePacked(value)))) \r\n                {\r\n                    isValid = false;\r\n                }\r\n            } else if ((keccak256(abi.encodePacked(rule)) == keccak256(abi.encodePacked(\">=\")))) {\r\n\t\t\t\tif ((keccak256(abi.encodePacked(documentAttribute)) >= keccak256(abi.encodePacked(value)))) \r\n                {\r\n                    isValid = false;\r\n                }\r\n            } else if ((keccak256(abi.encodePacked(rule)) == keccak256(abi.encodePacked(\"=\")))) {\r\n                if ((keccak256(abi.encodePacked(documentAttribute)) != keccak256(abi.encodePacked(value)))) \r\n                {\r\n                    isValid = false;\r\n                }\r\n            } else {\r\n                isValid = false;\r\n            }\r\n            i++;\r\n        }\r\n        return isValid;\r\n    }\r\n}",
  "sourcePath": "C:/Users/Alvaro/Documents/GitHub/DocumentVerifier/src/contracts/DocumentIdentifier.sol",
  "compiler": {
    "name": "solc",
    "version": "0.5.0+commit.1d4f565a.Emscripten.clang"
  },
  "schemaVersion": "3.0.2",
  "updatedAt": "2022-11-08T02:43:49.135Z",
  "devdoc": {
    "methods": {}
  },
  "userdoc": {
    "methods": {}
  }
}